{
  "contractName": "Curve",
  "abi": [
    {
      "inputs": [
        {
          "internalType": "address payable",
          "name": "_creator",
          "type": "address"
        }
      ],
      "stateMutability": "nonpayable",
      "type": "constructor"
    },
    {
      "anonymous": false,
      "inputs": [
        {
          "indexed": true,
          "internalType": "uint256",
          "name": "tokenId",
          "type": "uint256"
        },
        {
          "indexed": true,
          "internalType": "uint256",
          "name": "priceReceived",
          "type": "uint256"
        },
        {
          "indexed": true,
          "internalType": "uint256",
          "name": "reserveAfterBurn",
          "type": "uint256"
        }
      ],
      "name": "Burned",
      "type": "event"
    },
    {
      "anonymous": false,
      "inputs": [
        {
          "indexed": true,
          "internalType": "uint256",
          "name": "tokenId",
          "type": "uint256"
        },
        {
          "indexed": true,
          "internalType": "uint256",
          "name": "pricePaid",
          "type": "uint256"
        },
        {
          "indexed": true,
          "internalType": "uint256",
          "name": "reserveAfterMint",
          "type": "uint256"
        }
      ],
      "name": "Minted",
      "type": "event"
    },
    {
      "inputs": [
        {
          "internalType": "uint256",
          "name": "",
          "type": "uint256"
        }
      ],
      "name": "allMatrixes",
      "outputs": [
        {
          "internalType": "string",
          "name": "",
          "type": "string"
        }
      ],
      "stateMutability": "view",
      "type": "function",
      "constant": true
    },
    {
      "inputs": [],
      "name": "creator",
      "outputs": [
        {
          "internalType": "address payable",
          "name": "",
          "type": "address"
        }
      ],
      "stateMutability": "view",
      "type": "function",
      "constant": true
    },
    {
      "inputs": [],
      "name": "cycle",
      "outputs": [
        {
          "internalType": "uint256",
          "name": "",
          "type": "uint256"
        }
      ],
      "stateMutability": "view",
      "type": "function",
      "constant": true
    },
    {
      "inputs": [
        {
          "internalType": "string",
          "name": "",
          "type": "string"
        }
      ],
      "name": "hashes",
      "outputs": [
        {
          "internalType": "uint8",
          "name": "",
          "type": "uint8"
        }
      ],
      "stateMutability": "view",
      "type": "function",
      "constant": true
    },
    {
      "inputs": [],
      "name": "initBurnPrice",
      "outputs": [
        {
          "internalType": "uint256",
          "name": "",
          "type": "uint256"
        }
      ],
      "stateMutability": "view",
      "type": "function",
      "constant": true
    },
    {
      "inputs": [],
      "name": "initMintPrice",
      "outputs": [
        {
          "internalType": "uint256",
          "name": "",
          "type": "uint256"
        }
      ],
      "stateMutability": "view",
      "type": "function",
      "constant": true
    },
    {
      "inputs": [],
      "name": "maxwavtoken",
      "outputs": [
        {
          "internalType": "uint256",
          "name": "",
          "type": "uint256"
        }
      ],
      "stateMutability": "view",
      "type": "function",
      "constant": true
    },
    {
      "inputs": [],
      "name": "reserve",
      "outputs": [
        {
          "internalType": "uint256",
          "name": "",
          "type": "uint256"
        }
      ],
      "stateMutability": "view",
      "type": "function",
      "constant": true
    },
    {
      "inputs": [],
      "name": "w4v3",
      "outputs": [
        {
          "internalType": "contract ERC721",
          "name": "",
          "type": "address"
        }
      ],
      "stateMutability": "view",
      "type": "function",
      "constant": true
    },
    {
      "inputs": [
        {
          "internalType": "address",
          "name": "userAddress",
          "type": "address"
        }
      ],
      "name": "getUserMatrixs",
      "outputs": [
        {
          "internalType": "string[]",
          "name": "",
          "type": "string[]"
        }
      ],
      "stateMutability": "view",
      "type": "function",
      "constant": true
    },
    {
      "inputs": [
        {
          "internalType": "address",
          "name": "userAddress",
          "type": "address"
        }
      ],
      "name": "getMatrixs",
      "outputs": [
        {
          "internalType": "string[]",
          "name": "",
          "type": "string[]"
        },
        {
          "internalType": "uint256[]",
          "name": "",
          "type": "uint256[]"
        }
      ],
      "stateMutability": "view",
      "type": "function",
      "constant": true
    },
    {
      "inputs": [
        {
          "internalType": "string",
          "name": "hash",
          "type": "string"
        }
      ],
      "name": "mint",
      "outputs": [
        {
          "internalType": "uint256",
          "name": "_tokenId",
          "type": "uint256"
        }
      ],
      "stateMutability": "payable",
      "type": "function",
      "payable": true
    },
    {
      "inputs": [
        {
          "internalType": "uint256",
          "name": "tokenId",
          "type": "uint256"
        }
      ],
      "name": "burn",
      "outputs": [],
      "stateMutability": "nonpayable",
      "type": "function"
    },
    {
      "inputs": [],
      "name": "getCurrentPriceToMint",
      "outputs": [
        {
          "internalType": "uint256",
          "name": "",
          "type": "uint256"
        }
      ],
      "stateMutability": "view",
      "type": "function",
      "constant": true
    },
    {
      "inputs": [],
      "name": "getReserveCut",
      "outputs": [
        {
          "internalType": "uint256",
          "name": "",
          "type": "uint256"
        }
      ],
      "stateMutability": "view",
      "type": "function",
      "constant": true
    },
    {
      "inputs": [],
      "name": "getCurrentPriceToBurn",
      "outputs": [
        {
          "internalType": "uint256",
          "name": "",
          "type": "uint256"
        }
      ],
      "stateMutability": "view",
      "type": "function",
      "constant": true
    },
    {
      "inputs": [],
      "name": "getCurrentSupply",
      "outputs": [
        {
          "internalType": "uint256",
          "name": "",
          "type": "uint256"
        }
      ],
      "stateMutability": "view",
      "type": "function",
      "constant": true
    }
  ],
  "bytecode": "0x608060405266038d7ea4c68000600055660388f27d8d30006001553480156200002757600080fd5b50604051620051533803806200515383398181016040528101906200004d919062000139565b80600360006101000a81548173ffffffffffffffffffffffffffffffffffffffff021916908373ffffffffffffffffffffffffffffffffffffffff1602179055506000600281905550604051620000a49062000114565b620000af90620001e9565b604051809103906000f080158015620000cc573d6000803e3d6000fd5b50600460006101000a81548173ffffffffffffffffffffffffffffffffffffffff021916908373ffffffffffffffffffffffffffffffffffffffff160217905550506200027f565b6137fe806200195583390190565b600081519050620001338162000265565b92915050565b6000602082840312156200014c57600080fd5b60006200015c8482850162000122565b91505092915050565b60006200017460048362000220565b91507f44475341000000000000000000000000000000000000000000000000000000006000830152602082019050919050565b6000620001b660188362000220565b91507f2844652967656e6572617469766520736f756e642041727400000000000000006000830152602082019050919050565b600060408201905081810360008301526200020481620001a7565b90508181036020830152620002198162000165565b9050919050565b600082825260208201905092915050565b60006200023e8262000245565b9050919050565b600073ffffffffffffffffffffffffffffffffffffffff82169050919050565b620002708162000231565b81146200027c57600080fd5b50565b6116c6806200028f6000396000f3fe6080604052600436106100dd5760003560e01c8063c96b65441161007f578063d85d3d2711610059578063d85d3d27146102b2578063e4628745146102e2578063e57567db1461030d578063f1fc059b14610338576100dd565b8063c96b654414610231578063cd3293de1461025c578063d441426a14610287576100dd565b806342966c68116100bb57806342966c68146101635780634f3e1efc1461018c57806366054e7c146101b7578063685e0dc7146101f4576100dd565b806302d05d3f146100e25780631649229f1461010d5780632e8ad69f14610138575b600080fd5b3480156100ee57600080fd5b506100f7610375565b60405161010491906112e7565b60405180910390f35b34801561011957600080fd5b5061012261039b565b60405161012f919061145a565b60405180910390f35b34801561014457600080fd5b5061014d6103a1565b60405161015a919061145a565b60405180910390f35b34801561016f57600080fd5b5061018a60048036038101906101859190610fa1565b6103a7565b005b34801561019857600080fd5b506101a16104d9565b6040516101ae919061145a565b60405180910390f35b3480156101c357600080fd5b506101de60048036038101906101d99190610f37565b610580565b6040516101eb919061135b565b60405180910390f35b34801561020057600080fd5b5061021b60048036038101906102169190610f60565b6106ab565b6040516102289190611475565b60405180910390f35b34801561023d57600080fd5b506102466106e1565b604051610253919061145a565b60405180910390f35b34801561026857600080fd5b5061027161071d565b60405161027e919061145a565b60405180910390f35b34801561029357600080fd5b5061029c610723565b6040516102a9919061145a565b60405180910390f35b6102cc60048036038101906102c79190610f60565b61074b565b6040516102d9919061145a565b60405180910390f35b3480156102ee57600080fd5b506102f7610baf565b604051610304919061145a565b60405180910390f35b34801561031957600080fd5b50610322610bbe565b60405161032f919061137d565b60405180910390f35b34801561034457600080fd5b5061035f600480360381019061035a9190610fa1565b610be4565b60405161036c9190611398565b60405180910390f35b600360009054906101000a900473ffffffffffffffffffffffffffffffffffffffff1681565b60005481565b60015481565b60006103b1610723565b9050600460009054906101000a900473ffffffffffffffffffffffffffffffffffffffff1673ffffffffffffffffffffffffffffffffffffffff16639dc29fac33846040518363ffffffff1660e01b8152600401610410929190611332565b600060405180830381600087803b15801561042a57600080fd5b505af115801561043e573d6000803e3d6000fd5b5050505061045781600254610c9d90919063ffffffff16565b6002819055503373ffffffffffffffffffffffffffffffffffffffff166108fc829081150290604051600060405180830381858888f193505050501580156104a3573d6000803e3d6000fd5b5060025481837f82ac44fe03cbf84203fdc07400a8a763498cf2ccaa9788e23b09d56f4fc85f7260405160405180910390a45050565b6000600460009054906101000a900473ffffffffffffffffffffffffffffffffffffffff1673ffffffffffffffffffffffffffffffffffffffff166318160ddd6040518163ffffffff1660e01b815260040160206040518083038186803b15801561054357600080fd5b505afa158015610557573d6000803e3d6000fd5b505050506040513d601f19601f8201168201806040525081019061057b9190610fca565b905090565b6060600560008373ffffffffffffffffffffffffffffffffffffffff1673ffffffffffffffffffffffffffffffffffffffff168152602001908152602001600020600101805480602002602001604051908101604052809291908181526020016000905b828210156106a0578382906000526020600020018054600181600116156101000203166002900480601f01602080910402602001604051908101604052809291908181526020018280546001816001161561010002031660029004801561068c5780601f106106615761010080835404028352916020019161068c565b820191906000526020600020905b81548152906001019060200180831161066f57829003601f168201915b5050505050815260200190600101906105e4565b505050509050919050565b6007818051602081018201805184825260208301602085012081835280955050505050506000915054906101000a900460ff1681565b6000806107146107036000546106f56104d9565b610ce790919063ffffffff16565b600054610d5790919063ffffffff16565b90508091505090565b60025481565b6000806107426001546107346104d9565b610ce790919063ffffffff16565b90508091505090565b600080341161078f576040517f08c379a0000000000000000000000000000000000000000000000000000000008152600401610786906113fa565b60405180910390fd5b60006107996106e1565b9050803410156107de576040517f08c379a00000000000000000000000000000000000000000000000000000000081526004016107d59061143a565b60405180910390fd5b60016007846040516107f091906112d0565b908152602001604051809103902060009054906101000a900460ff1660ff161415610850576040517f08c379a0000000000000000000000000000000000000000000000000000000008152600401610847906113ba565b60405180910390fd5b600160078460405161086291906112d0565b908152602001604051809103902060006101000a81548160ff021916908360ff1602179055506000600460009054906101000a900473ffffffffffffffffffffffffffffffffffffffff1673ffffffffffffffffffffffffffffffffffffffff1663d0def52133866040518363ffffffff1660e01b81526004016108e7929190611302565b602060405180830381600087803b15801561090157600080fd5b505af1158015610915573d6000803e3d6000fd5b505050506040513d601f19601f820116820180604052508101906109399190610fca565b90506000610945610baf565b905061095c81600254610d5790919063ffffffff16565b600281905550600360009054906101000a900473ffffffffffffffffffffffffffffffffffffffff1673ffffffffffffffffffffffffffffffffffffffff166108fc6109b18386610c9d90919063ffffffff16565b9081150290604051600060405180830381858888f193505050501580156109dc573d6000803e3d6000fd5b5060006109f28434610c9d90919063ffffffff16565b1115610a52573373ffffffffffffffffffffffffffffffffffffffff166108fc610a258534610c9d90919063ffffffff16565b9081150290604051600060405180830381858888f19350505050158015610a50573d6000803e3d6000fd5b505b60025483837f488bbf7ce8682b98371a0bb07d4e838ce2e533a907ceda8ac6ee658fdbd162e060405160405180910390a4600560003373ffffffffffffffffffffffffffffffffffffffff1673ffffffffffffffffffffffffffffffffffffffff16815260200190815260200160002060010185908060018154018082558091505060019003906000526020600020016000909190919091509080519060200190610afe929190610e07565b50600560003373ffffffffffffffffffffffffffffffffffffffff1673ffffffffffffffffffffffffffffffffffffffff168152602001908152602001600020600001829080600181540180825580915050600190039060005260206000200160009091909190915055600685908060018154018082558091505060019003906000526020600020016000909190919091509080519060200190610ba3929190610e07565b50819350505050919050565b6000610bb9610723565b905090565b600460009054906101000a900473ffffffffffffffffffffffffffffffffffffffff1681565b60068181548110610bf157fe5b906000526020600020016000915090508054600181600116156101000203166002900480601f016020809104026020016040519081016040528092919081815260200182805460018160011615610100020316600290048015610c955780601f10610c6a57610100808354040283529160200191610c95565b820191906000526020600020905b815481529060010190602001808311610c7857829003601f168201915b505050505081565b6000610cdf83836040518060400160405280601e81526020017f536166654d6174683a207375627472616374696f6e206f766572666c6f770000815250610dac565b905092915050565b600080831415610cfa5760009050610d51565b6000828402905082848281610d0b57fe5b0414610d4c576040517f08c379a0000000000000000000000000000000000000000000000000000000008152600401610d439061141a565b60405180910390fd5b809150505b92915050565b600080828401905083811015610da2576040517f08c379a0000000000000000000000000000000000000000000000000000000008152600401610d99906113da565b60405180910390fd5b8091505092915050565b6000838311158290610df4576040517f08c379a0000000000000000000000000000000000000000000000000000000008152600401610deb9190611398565b60405180910390fd5b5060008385039050809150509392505050565b828054600181600116156101000203166002900490600052602060002090601f016020900481019282601f10610e4857805160ff1916838001178555610e76565b82800160010185558215610e76579182015b82811115610e75578251825591602001919060010190610e5a565b5b509050610e839190610e87565b5090565b5b80821115610ea0576000816000905550600101610e88565b5090565b600081359050610eb381611662565b92915050565b600082601f830112610eca57600080fd5b8135610edd610ed8826114bd565b611490565b91508082526020830160208301858383011115610ef957600080fd5b610f0483828461160f565b50505092915050565b600081359050610f1c81611679565b92915050565b600081519050610f3181611679565b92915050565b600060208284031215610f4957600080fd5b6000610f5784828501610ea4565b91505092915050565b600060208284031215610f7257600080fd5b600082013567ffffffffffffffff811115610f8c57600080fd5b610f9884828501610eb9565b91505092915050565b600060208284031215610fb357600080fd5b6000610fc184828501610f0d565b91505092915050565b600060208284031215610fdc57600080fd5b6000610fea84828501610f22565b91505092915050565b6000610fff83836110a9565b905092915050565b611010816115b5565b82525050565b61101f8161156c565b82525050565b6000611030826114f9565b61103a818561151c565b93508360208202850161104c856114e9565b8060005b8581101561108857848403895281516110698582610ff3565b94506110748361150f565b925060208a01995050600181019050611050565b50829750879550505050505092915050565b6110a3816115c7565b82525050565b60006110b482611504565b6110be818561152d565b93506110ce81856020860161161e565b6110d781611651565b840191505092915050565b60006110ed82611504565b6110f7818561153e565b935061110781856020860161161e565b61111081611651565b840191505092915050565b600061112682611504565b611130818561154f565b935061114081856020860161161e565b80840191505092915050565b6000611159600e8361153e565b91507f416c7265616479206d696e7465640000000000000000000000000000000000006000830152602082019050919050565b6000611199601b8361153e565b91507f536166654d6174683a206164646974696f6e206f766572666c6f7700000000006000830152602082019050919050565b60006111d9600e8361153e565b91507f433a204e6f204554482073656e740000000000000000000000000000000000006000830152602082019050919050565b600061121960218361153e565b91507f536166654d6174683a206d756c7469706c69636174696f6e206f766572666c6f60008301527f77000000000000000000000000000000000000000000000000000000000000006020830152604082019050919050565b600061127f60168361153e565b91507f433a204e6f7420656e6f756768204554482073656e74000000000000000000006000830152602082019050919050565b6112bb8161159e565b82525050565b6112ca816115a8565b82525050565b60006112dc828461111b565b915081905092915050565b60006020820190506112fc6000830184611016565b92915050565b60006040820190506113176000830185611007565b818103602083015261132981846110e2565b90509392505050565b60006040820190506113476000830185611007565b61135460208301846112b2565b9392505050565b600060208201905081810360008301526113758184611025565b905092915050565b6000602082019050611392600083018461109a565b92915050565b600060208201905081810360008301526113b281846110e2565b905092915050565b600060208201905081810360008301526113d38161114c565b9050919050565b600060208201905081810360008301526113f38161118c565b9050919050565b60006020820190508181036000830152611413816111cc565b9050919050565b600060208201905081810360008301526114338161120c565b9050919050565b6000602082019050818103600083015261145381611272565b9050919050565b600060208201905061146f60008301846112b2565b92915050565b600060208201905061148a60008301846112c1565b92915050565b6000604051905081810181811067ffffffffffffffff821117156114b357600080fd5b8060405250919050565b600067ffffffffffffffff8211156114d457600080fd5b601f19601f8301169050602081019050919050565b6000819050602082019050919050565b600081519050919050565b600081519050919050565b6000602082019050919050565b600082825260208201905092915050565b600082825260208201905092915050565b600082825260208201905092915050565b600081905092915050565b60006115658261157e565b9050919050565b60006115778261157e565b9050919050565b600073ffffffffffffffffffffffffffffffffffffffff82169050919050565b6000819050919050565b600060ff82169050919050565b60006115c0826115eb565b9050919050565b60006115d2826115d9565b9050919050565b60006115e48261157e565b9050919050565b60006115f6826115fd565b9050919050565b60006116088261157e565b9050919050565b82818337600083830152505050565b60005b8381101561163c578082015181840152602081019050611621565b8381111561164b576000848401525b50505050565b6000601f19601f8301169050919050565b61166b8161155a565b811461167657600080fd5b50565b6116828161159e565b811461168d57600080fd5b5056fea2646970667358221220bc375ec1e5f3eddc4f4a416b6801b128a1989481bbcd3e205d8275f5e54d897064736f6c634300060c003360806040526000600f553480156200001657600080fd5b50604051620037fe380380620037fe833981810160405260408110156200003c57600080fd5b81019080805160405193929190846401000000008211156200005d57600080fd5b838201915060208201858111156200007457600080fd5b82518660018202830111640100000000821117156200009257600080fd5b8083526020830192505050908051906020019080838360005b83811015620000c8578082015181840152602081019050620000ab565b50505050905090810190601f168015620000f65780820380516001836020036101000a031916815260200191505b50604052602001805160405193929190846401000000008211156200011a57600080fd5b838201915060208201858111156200013157600080fd5b82518660018202830111640100000000821117156200014f57600080fd5b8083526020830192505050908051906020019080838360005b838110156200018557808201518184015260208101905062000168565b50505050905090810190601f168015620001b35780820380516001836020036101000a031916815260200191505b50604052505050620001d26301ffc9a760e01b6200029560201b60201c565b8160069080519060200190620001ea9291906200039e565b508060079080519060200190620002039291906200039e565b506200021c6380ac58cd60e01b6200029560201b60201c565b62000234635b5e139f60e01b6200029560201b60201c565b6200024c63780e9d6360e01b6200029560201b60201c565b33600e60006101000a81548173ffffffffffffffffffffffffffffffffffffffff021916908373ffffffffffffffffffffffffffffffffffffffff160217905550505062000444565b63ffffffff60e01b817bffffffffffffffffffffffffffffffffffffffffffffffffffffffff1916141562000332576040517f08c379a000000000000000000000000000000000000000000000000000000000815260040180806020018281038252601c8152602001807f4552433136353a20696e76616c696420696e746572666163652069640000000081525060200191505060405180910390fd5b6001600080837bffffffffffffffffffffffffffffffffffffffffffffffffffffffff19167bffffffffffffffffffffffffffffffffffffffffffffffffffffffff1916815260200190815260200160002060006101000a81548160ff02191690831515021790555050565b828054600181600116156101000203166002900490600052602060002090601f016020900481019282601f10620003e157805160ff191683800117855562000412565b8280016001018555821562000412579182015b8281111562000411578251825591602001919060010190620003f4565b5b50905062000421919062000425565b5090565b5b808211156200044057600081600090555060010162000426565b5090565b6133aa80620004546000396000f3fe608060405234801561001057600080fd5b506004361061014d5760003560e01c806370a08231116100c3578063b88d4fde1161007c578063b88d4fde14610722578063bb80860f14610827578063c87b56dd14610873578063d0def5211461091a578063d13319c414610a09578063e985e9c514610a8c5761014d565b806370a08231146105575780637165485d146105af578063924808b4146105e357806395d89b41146106015780639dc29fac14610684578063a22cb465146106d25761014d565b806323b872dd1161011557806323b872dd146102fc5780632f745c591461036a57806342842e0e146103cc5780634f6ccce71461043a5780636352211e1461047c5780636c0360eb146104d45761014d565b806301ffc9a71461015257806306fdde03146101b5578063081812fc14610238578063095ea7b31461029057806318160ddd146102de575b600080fd5b61019d6004803603602081101561016857600080fd5b8101908080357bffffffffffffffffffffffffffffffffffffffffffffffffffffffff19169060200190929190505050610b06565b60405180821515815260200191505060405180910390f35b6101bd610b6d565b6040518080602001828103825283818151815260200191508051906020019080838360005b838110156101fd5780820151818401526020810190506101e2565b50505050905090810190601f16801561022a5780820380516001836020036101000a031916815260200191505b509250505060405180910390f35b6102646004803603602081101561024e57600080fd5b8101908080359060200190929190505050610c0f565b604051808273ffffffffffffffffffffffffffffffffffffffff16815260200191505060405180910390f35b6102dc600480360360408110156102a657600080fd5b81019080803573ffffffffffffffffffffffffffffffffffffffff16906020019092919080359060200190929190505050610caa565b005b6102e6610de0565b6040518082815260200191505060405180910390f35b6103686004803603606081101561031257600080fd5b81019080803573ffffffffffffffffffffffffffffffffffffffff169060200190929190803573ffffffffffffffffffffffffffffffffffffffff16906020019092919080359060200190929190505050610df1565b005b6103b66004803603604081101561038057600080fd5b81019080803573ffffffffffffffffffffffffffffffffffffffff16906020019092919080359060200190929190505050610e60565b6040518082815260200191505060405180910390f35b610438600480360360608110156103e257600080fd5b81019080803573ffffffffffffffffffffffffffffffffffffffff169060200190929190803573ffffffffffffffffffffffffffffffffffffffff16906020019092919080359060200190929190505050610ebb565b005b6104666004803603602081101561045057600080fd5b8101908080359060200190929190505050610edb565b6040518082815260200191505060405180910390f35b6104a86004803603602081101561049257600080fd5b8101908080359060200190929190505050610efe565b604051808273ffffffffffffffffffffffffffffffffffffffff16815260200191505060405180910390f35b6104dc610f35565b6040518080602001828103825283818151815260200191508051906020019080838360005b8381101561051c578082015181840152602081019050610501565b50505050905090810190601f1680156105495780820380516001836020036101000a031916815260200191505b509250505060405180910390f35b6105996004803603602081101561056d57600080fd5b81019080803573ffffffffffffffffffffffffffffffffffffffff169060200190929190505050610fd7565b6040518082815260200191505060405180910390f35b6105b76110ac565b604051808273ffffffffffffffffffffffffffffffffffffffff16815260200191505060405180910390f35b6105eb6110d2565b6040518082815260200191505060405180910390f35b6106096110d8565b6040518080602001828103825283818151815260200191508051906020019080838360005b8381101561064957808201518184015260208101905061062e565b50505050905090810190601f1680156106765780820380516001836020036101000a031916815260200191505b509250505060405180910390f35b6106d06004803603604081101561069a57600080fd5b81019080803573ffffffffffffffffffffffffffffffffffffffff1690602001909291908035906020019092919050505061117a565b005b610720600480360360408110156106e857600080fd5b81019080803573ffffffffffffffffffffffffffffffffffffffff16906020019092919080351515906020019092919050505061130f565b005b6108256004803603608081101561073857600080fd5b81019080803573ffffffffffffffffffffffffffffffffffffffff169060200190929190803573ffffffffffffffffffffffffffffffffffffffff169060200190929190803590602001909291908035906020019064010000000081111561079f57600080fd5b8201836020820111156107b157600080fd5b803590602001918460018302840111640100000000831117156107d357600080fd5b91908080601f016020809104026020016040519081016040528093929190818152602001838380828437600081840152601f19601f8201169050808301925050505050505091929192905050506114b0565b005b61085d6004803603604081101561083d57600080fd5b810190808035906020019092919080359060200190929190505050611521565b6040518082815260200191505060405180910390f35b61089f6004803603602081101561088957600080fd5b810190808035906020019092919050505061154f565b6040518080602001828103825283818151815260200191508051906020019080838360005b838110156108df5780820151818401526020810190506108c4565b50505050905090810190601f16801561090c5780820380516001836020036101000a031916815260200191505b509250505060405180910390f35b6109f36004803603604081101561093057600080fd5b81019080803573ffffffffffffffffffffffffffffffffffffffff1690602001909291908035906020019064010000000081111561096d57600080fd5b82018360208201111561097f57600080fd5b803590602001918460018302840111640100000000831117156109a157600080fd5b91908080601f016020809104026020016040519081016040528093929190818152602001838380828437600081840152601f19601f820116905080830192505050505050509192919290505050611838565b6040518082815260200191505060405180910390f35b610a11611a2f565b6040518080602001828103825283818151815260200191508051906020019080838360005b83811015610a51578082015181840152602081019050610a36565b50505050905090810190601f168015610a7e5780820380516001836020036101000a031916815260200191505b509250505060405180910390f35b610aee60048036036040811015610aa257600080fd5b81019080803573ffffffffffffffffffffffffffffffffffffffff169060200190929190803573ffffffffffffffffffffffffffffffffffffffff169060200190929190505050611ad1565b60405180821515815260200191505060405180910390f35b6000806000837bffffffffffffffffffffffffffffffffffffffffffffffffffffffff19167bffffffffffffffffffffffffffffffffffffffffffffffffffffffff1916815260200190815260200160002060009054906101000a900460ff169050919050565b606060068054600181600116156101000203166002900480601f016020809104026020016040519081016040528092919081815260200182805460018160011615610100020316600290048015610c055780601f10610bda57610100808354040283529160200191610c05565b820191906000526020600020905b815481529060010190602001808311610be857829003601f168201915b5050505050905090565b6000610c1a82611b65565b610c6f576040517f08c379a000000000000000000000000000000000000000000000000000000000815260040180806020018281038252602c81526020018061327c602c913960400191505060405180910390fd5b6004600083815260200190815260200160002060009054906101000a900473ffffffffffffffffffffffffffffffffffffffff169050919050565b6000610cb582610efe565b90508073ffffffffffffffffffffffffffffffffffffffff168373ffffffffffffffffffffffffffffffffffffffff161415610d3c576040517f08c379a00000000000000000000000000000000000000000000000000000000081526004018080602001828103825260218152602001806133236021913960400191505060405180910390fd5b8073ffffffffffffffffffffffffffffffffffffffff163373ffffffffffffffffffffffffffffffffffffffff161480610d7c5750610d7b8133611ad1565b5b610dd1576040517f08c379a00000000000000000000000000000000000000000000000000000000081526004018080602001828103825260388152602001806131ae6038913960400191505060405180910390fd5b610ddb8383611b82565b505050565b6000610dec6002611c3b565b905090565b610dfb3382611c50565b610e50576040517f08c379a00000000000000000000000000000000000000000000000000000000081526004018080602001828103825260318152602001806133446031913960400191505060405180910390fd5b610e5b838383611d44565b505050565b6000610eb382600160008673ffffffffffffffffffffffffffffffffffffffff1673ffffffffffffffffffffffffffffffffffffffff168152602001908152602001600020611f7c90919063ffffffff16565b905092915050565b610ed6838383604051806020016040528060008152506114b0565b505050565b600080610ef2836002611f9690919063ffffffff16565b50905080915050919050565b6000610f2e82604051806060016040528060298152602001613210602991396002611fc29092919063ffffffff16565b9050919050565b6060600d8054600181600116156101000203166002900480601f016020809104026020016040519081016040528092919081815260200182805460018160011615610100020316600290048015610fcd5780601f10610fa257610100808354040283529160200191610fcd565b820191906000526020600020905b815481529060010190602001808311610fb057829003601f168201915b5050505050905090565b60008073ffffffffffffffffffffffffffffffffffffffff168273ffffffffffffffffffffffffffffffffffffffff16141561105e576040517f08c379a000000000000000000000000000000000000000000000000000000000815260040180806020018281038252602a8152602001806131e6602a913960400191505060405180910390fd5b6110a5600160008473ffffffffffffffffffffffffffffffffffffffff1673ffffffffffffffffffffffffffffffffffffffff168152602001908152602001600020611fe1565b9050919050565b600e60009054906101000a900473ffffffffffffffffffffffffffffffffffffffff1681565b600f5481565b606060078054600181600116156101000203166002900480601f0160208091040260200160405190810160405280929190818152602001828054600181600116156101000203166002900480156111705780601f1061114557610100808354040283529160200191611170565b820191906000526020600020905b81548152906001019060200180831161115357829003601f168201915b5050505050905090565b600e60009054906101000a900473ffffffffffffffffffffffffffffffffffffffff1673ffffffffffffffffffffffffffffffffffffffff163373ffffffffffffffffffffffffffffffffffffffff1614611220576040517f08c379a00000000000000000000000000000000000000000000000000000000081526004018080602001828103825260238152602001806131156023913960400191505060405180910390fd5b61122981610efe565b73ffffffffffffffffffffffffffffffffffffffff168273ffffffffffffffffffffffffffffffffffffffff16146112ac576040517f08c379a000000000000000000000000000000000000000000000000000000000815260040180806020018281038252602181526020018061325b6021913960400191505060405180910390fd5b6112b581611ff6565b8173ffffffffffffffffffffffffffffffffffffffff16817f7a6396f9141e42bbd82eddb43e30077ef07aaafcd4ee3dfbd6adb1dca8f2445a6112f6610de0565b6040518082815260200191505060405180910390a35050565b3373ffffffffffffffffffffffffffffffffffffffff168273ffffffffffffffffffffffffffffffffffffffff1614156113b1576040517f08c379a00000000000000000000000000000000000000000000000000000000081526004018080602001828103825260198152602001807f4552433732313a20617070726f766520746f2063616c6c65720000000000000081525060200191505060405180910390fd5b80600560003373ffffffffffffffffffffffffffffffffffffffff1673ffffffffffffffffffffffffffffffffffffffff16815260200190815260200160002060008473ffffffffffffffffffffffffffffffffffffffff1673ffffffffffffffffffffffffffffffffffffffff16815260200190815260200160002060006101000a81548160ff0219169083151502179055508173ffffffffffffffffffffffffffffffffffffffff163373ffffffffffffffffffffffffffffffffffffffff167f17307eab39ab6107e8899845ad3d59bd9653f200f220920489ca2b5937696c318360405180821515815260200191505060405180910390a35050565b6114ba3383611c50565b61150f576040517f08c379a00000000000000000000000000000000000000000000000000000000081526004018080602001828103825260318152602001806133446031913960400191505060405180910390fd5b61151b84848484612124565b50505050565b600b602052816000526040600020818154811061153a57fe5b90600052602060002001600091509150505481565b606061155a82611b65565b6115af576040517f08c379a000000000000000000000000000000000000000000000000000000000815260040180806020018281038252602f8152602001806132f4602f913960400191505060405180910390fd5b6060600c60008481526020019081526020016000208054600181600116156101000203166002900480601f0160208091040260200160405190810160405280929190818152602001828054600181600116156101000203166002900480156116585780601f1061162d57610100808354040283529160200191611658565b820191906000526020600020905b81548152906001019060200180831161163b57829003601f168201915b505050505090506000600d80546001816001161561010002031660029004905014156116875780915050611833565b60008151111561176057600d8160405160200180838054600181600116156101000203166002900480156116f25780601f106116d05761010080835404028352918201916116f2565b820191906000526020600020905b8154815290600101906020018083116116de575b505082805190602001908083835b602083106117235780518252602082019150602081019050602083039250611700565b6001836020036101000a03801982511681845116808217855250505050505090500192505050604051602081830303815290604052915050611833565b600d61176b84612196565b60405160200180838054600181600116156101000203166002900480156117c95780601f106117a75761010080835404028352918201916117c9565b820191906000526020600020905b8154815290600101906020018083116117b5575b505082805190602001908083835b602083106117fa57805182526020820191506020810190506020830392506117d7565b6001836020036101000a038019825116818451168082178552505050505050905001925050506040516020818303038152906040529150505b919050565b6000600e60009054906101000a900473ffffffffffffffffffffffffffffffffffffffff1673ffffffffffffffffffffffffffffffffffffffff163373ffffffffffffffffffffffffffffffffffffffff16146118e0576040517f08c379a00000000000000000000000000000000000000000000000000000000081526004018080602001828103825260238152602001806132a86023913960400191505060405180910390fd5b81601090805190602001906118f6929190612fdb565b50600082600f5442866040516020018085805190602001908083835b602083106119355780518252602082019150602081019050602083039250611912565b6001836020036101000a0380198251168184511680821785525050505050509050018481526020018381526020018273ffffffffffffffffffffffffffffffffffffffff1660601b815260140194505050505060405160208183030381529060405280519060200120905060008160001c90506119b285826122dd565b6001600f600082825401925050819055508473ffffffffffffffffffffffffffffffffffffffff1642827f393cd7b3ace4802d7cab7785cdcbcb9afb3a046d34f1e1b3ba0060f9cffc2687600f54611a08610de0565b604051808381526020018281526020019250505060405180910390a4809250505092915050565b606060108054600181600116156101000203166002900480601f016020809104026020016040519081016040528092919081815260200182805460018160011615610100020316600290048015611ac75780601f10611a9c57610100808354040283529160200191611ac7565b820191906000526020600020905b815481529060010190602001808311611aaa57829003601f168201915b5050505050905090565b6000600560008473ffffffffffffffffffffffffffffffffffffffff1673ffffffffffffffffffffffffffffffffffffffff16815260200190815260200160002060008373ffffffffffffffffffffffffffffffffffffffff1673ffffffffffffffffffffffffffffffffffffffff16815260200190815260200160002060009054906101000a900460ff16905092915050565b6000611b7b8260026124c590919063ffffffff16565b9050919050565b816004600083815260200190815260200160002060006101000a81548173ffffffffffffffffffffffffffffffffffffffff021916908373ffffffffffffffffffffffffffffffffffffffff160217905550808273ffffffffffffffffffffffffffffffffffffffff16611bf583610efe565b73ffffffffffffffffffffffffffffffffffffffff167f8c5be1e5ebec7d5bd14f71427d1e84f3dd0314c0f7b2291e5b200ac8c7c3b92560405160405180910390a45050565b6000611c49826000016124df565b9050919050565b6000611c5b82611b65565b611cb0576040517f08c379a000000000000000000000000000000000000000000000000000000000815260040180806020018281038252602c815260200180613182602c913960400191505060405180910390fd5b6000611cbb83610efe565b90508073ffffffffffffffffffffffffffffffffffffffff168473ffffffffffffffffffffffffffffffffffffffff161480611d2a57508373ffffffffffffffffffffffffffffffffffffffff16611d1284610c0f565b73ffffffffffffffffffffffffffffffffffffffff16145b80611d3b5750611d3a8185611ad1565b5b91505092915050565b8273ffffffffffffffffffffffffffffffffffffffff16611d6482610efe565b73ffffffffffffffffffffffffffffffffffffffff1614611dd0576040517f08c379a00000000000000000000000000000000000000000000000000000000081526004018080602001828103825260298152602001806132cb6029913960400191505060405180910390fd5b600073ffffffffffffffffffffffffffffffffffffffff168273ffffffffffffffffffffffffffffffffffffffff161415611e56576040517f08c379a00000000000000000000000000000000000000000000000000000000081526004018080602001828103825260248152602001806131386024913960400191505060405180910390fd5b611e61600082611b82565b611eb281600160008673ffffffffffffffffffffffffffffffffffffffff1673ffffffffffffffffffffffffffffffffffffffff1681526020019081526020016000206124f090919063ffffffff16565b50611f0481600160008573ffffffffffffffffffffffffffffffffffffffff1673ffffffffffffffffffffffffffffffffffffffff16815260200190815260200160002061250a90919063ffffffff16565b50611f1b818360026125249092919063ffffffff16565b50808273ffffffffffffffffffffffffffffffffffffffff168473ffffffffffffffffffffffffffffffffffffffff167fddf252ad1be2c89b69c2b068fc378daa952ba7f163c4a11628f55a4df523b3ef60405160405180910390a4505050565b6000611f8b8360000183612559565b60001c905092915050565b600080600080611fa986600001866125dc565b915091508160001c8160001c9350935050509250929050565b6000611fd5846000018460001b84612675565b60001c90509392505050565b6000611fef8260000161276b565b9050919050565b600061200182610efe565b905061200e600083611b82565b6000600c60008481526020019081526020016000208054600181600116156101000203166002900490501461205d57600c6000838152602001908152602001600020600061205c919061305b565b5b6120ae82600160008473ffffffffffffffffffffffffffffffffffffffff1673ffffffffffffffffffffffffffffffffffffffff1681526020019081526020016000206124f090919063ffffffff16565b506120c382600261277c90919063ffffffff16565b5081600073ffffffffffffffffffffffffffffffffffffffff168273ffffffffffffffffffffffffffffffffffffffff167fddf252ad1be2c89b69c2b068fc378daa952ba7f163c4a11628f55a4df523b3ef60405160405180910390a45050565b61212f848484611d44565b61213b84848484612796565b612190576040517f08c379a00000000000000000000000000000000000000000000000000000000081526004018080602001828103825260328152602001806130e36032913960400191505060405180910390fd5b50505050565b606060008214156121de576040518060400160405280600181526020017f300000000000000000000000000000000000000000000000000000000000000081525090506122d8565b600082905060005b60008214612208578080600101915050600a828161220057fe5b0491506121e6565b60608167ffffffffffffffff8111801561222157600080fd5b506040519080825280601f01601f1916602001820160405280156122545781602001600182028036833780820191505090505b50905060006001830390508593505b600084146122d057600a848161227557fe5b0660300160f81b8282806001900393508151811061228f57fe5b60200101907effffffffffffffffffffffffffffffffffffffffffffffffffffffffffffff1916908160001a905350600a84816122c857fe5b049350612263565b819450505050505b919050565b600073ffffffffffffffffffffffffffffffffffffffff168273ffffffffffffffffffffffffffffffffffffffff161415612380576040517f08c379a00000000000000000000000000000000000000000000000000000000081526004018080602001828103825260208152602001807f4552433732313a206d696e7420746f20746865207a65726f206164647265737381525060200191505060405180910390fd5b61238981611b65565b156123fc576040517f08c379a000000000000000000000000000000000000000000000000000000000815260040180806020018281038252601c8152602001807f4552433732313a20746f6b656e20616c7265616479206d696e7465640000000081525060200191505060405180910390fd5b61244d81600160008573ffffffffffffffffffffffffffffffffffffffff1673ffffffffffffffffffffffffffffffffffffffff16815260200190815260200160002061250a90919063ffffffff16565b50612464818360026125249092919063ffffffff16565b50808273ffffffffffffffffffffffffffffffffffffffff16600073ffffffffffffffffffffffffffffffffffffffff167fddf252ad1be2c89b69c2b068fc378daa952ba7f163c4a11628f55a4df523b3ef60405160405180910390a45050565b60006124d7836000018360001b6129a8565b905092915050565b600081600001805490509050919050565b6000612502836000018360001b6129cb565b905092915050565b600061251c836000018360001b612ab3565b905092915050565b6000612550846000018460001b8473ffffffffffffffffffffffffffffffffffffffff1660001b612b23565b90509392505050565b6000818360000180549050116125ba576040517f08c379a00000000000000000000000000000000000000000000000000000000081526004018080602001828103825260228152602001806130c16022913960400191505060405180910390fd5b8260000182815481106125c957fe5b9060005260206000200154905092915050565b6000808284600001805490501161263e576040517f08c379a00000000000000000000000000000000000000000000000000000000081526004018080602001828103825260228152602001806132396022913960400191505060405180910390fd5b600084600001848154811061264f57fe5b906000526020600020906002020190508060000154816001015492509250509250929050565b6000808460010160008581526020019081526020016000205490506000811415839061273c576040517f08c379a00000000000000000000000000000000000000000000000000000000081526004018080602001828103825283818151815260200191508051906020019080838360005b838110156127015780820151818401526020810190506126e6565b50505050905090810190601f16801561272e5780820380516001836020036101000a031916815260200191505b509250505060405180910390fd5b5084600001600182038154811061274f57fe5b9060005260206000209060020201600101549150509392505050565b600081600001805490509050919050565b600061278e836000018360001b612bff565b905092915050565b60006127b78473ffffffffffffffffffffffffffffffffffffffff16612d18565b6127c457600190506129a0565b606061292763150b7a0260e01b33888787604051602401808573ffffffffffffffffffffffffffffffffffffffff1681526020018473ffffffffffffffffffffffffffffffffffffffff16815260200183815260200180602001828103825283818151815260200191508051906020019080838360005b8381101561285657808201518184015260208101905061283b565b50505050905090810190601f1680156128835780820380516001836020036101000a031916815260200191505b5095505050505050604051602081830303815290604052907bffffffffffffffffffffffffffffffffffffffffffffffffffffffff19166020820180517bffffffffffffffffffffffffffffffffffffffffffffffffffffffff83818316178352505050506040518060600160405280603281526020016130e3603291398773ffffffffffffffffffffffffffffffffffffffff16612d2b9092919063ffffffff16565b9050600081806020019051602081101561294057600080fd5b8101908080519060200190929190505050905063150b7a0260e01b7bffffffffffffffffffffffffffffffffffffffffffffffffffffffff1916817bffffffffffffffffffffffffffffffffffffffffffffffffffffffff191614925050505b949350505050565b600080836001016000848152602001908152602001600020541415905092915050565b60008083600101600084815260200190815260200160002054905060008114612aa75760006001820390506000600186600001805490500390506000866000018281548110612a1657fe5b9060005260206000200154905080876000018481548110612a3357fe5b9060005260206000200181905550600183018760010160008381526020019081526020016000208190555086600001805480612a6b57fe5b60019003818190600052602060002001600090559055866001016000878152602001908152602001600020600090556001945050505050612aad565b60009150505b92915050565b6000612abf8383612d43565b612b18578260000182908060018154018082558091505060019003906000526020600020016000909190919091505582600001805490508360010160008481526020019081526020016000208190555060019050612b1d565b600090505b92915050565b6000808460010160008581526020019081526020016000205490506000811415612bca57846000016040518060400160405280868152602001858152509080600181540180825580915050600190039060005260206000209060020201600090919091909150600082015181600001556020820151816001015550508460000180549050856001016000868152602001908152602001600020819055506001915050612bf8565b82856000016001830381548110612bdd57fe5b90600052602060002090600202016001018190555060009150505b9392505050565b60008083600101600084815260200190815260200160002054905060008114612d0c5760006001820390506000600186600001805490500390506000866000018281548110612c4a57fe5b9060005260206000209060020201905080876000018481548110612c6a57fe5b9060005260206000209060020201600082015481600001556001820154816001015590505060018301876001016000836000015481526020019081526020016000208190555086600001805480612cbd57fe5b6001900381819060005260206000209060020201600080820160009055600182016000905550509055866001016000878152602001908152602001600020600090556001945050505050612d12565b60009150505b92915050565b600080823b905060008111915050919050565b6060612d3a8484600085612d66565b90509392505050565b600080836001016000848152602001908152602001600020541415905092915050565b606082471015612dc1576040517f08c379a000000000000000000000000000000000000000000000000000000000815260040180806020018281038252602681526020018061315c6026913960400191505060405180910390fd5b612dca85612d18565b612e3c576040517f08c379a000000000000000000000000000000000000000000000000000000000815260040180806020018281038252601d8152602001807f416464726573733a2063616c6c20746f206e6f6e2d636f6e747261637400000081525060200191505060405180910390fd5b600060608673ffffffffffffffffffffffffffffffffffffffff1685876040518082805190602001908083835b60208310612e8c5780518252602082019150602081019050602083039250612e69565b6001836020036101000a03801982511681845116808217855250505050505090500191505060006040518083038185875af1925050503d8060008114612eee576040519150601f19603f3d011682016040523d82523d6000602084013e612ef3565b606091505b5091509150612f03828286612f0f565b92505050949350505050565b60608315612f1f57829050612fd4565b600083511115612f325782518084602001fd5b816040517f08c379a00000000000000000000000000000000000000000000000000000000081526004018080602001828103825283818151815260200191508051906020019080838360005b83811015612f99578082015181840152602081019050612f7e565b50505050905090810190601f168015612fc65780820380516001836020036101000a031916815260200191505b509250505060405180910390fd5b9392505050565b828054600181600116156101000203166002900490600052602060002090601f016020900481019282601f1061301c57805160ff191683800117855561304a565b8280016001018555821561304a579182015b8281111561304957825182559160200191906001019061302e565b5b50905061305791906130a3565b5090565b50805460018160011615610100020316600290046000825580601f1061308157506130a0565b601f01602090049060005260206000209081019061309f91906130a3565b5b50565b5b808211156130bc5760008160009055506001016130a4565b509056fe456e756d657261626c655365743a20696e646578206f7574206f6620626f756e64734552433732313a207472616e7366657220746f206e6f6e20455243373231526563656976657220696d706c656d656e7465724e454f4c4153544943533a204275726e6572206973206e6f74207468652063757276654552433732313a207472616e7366657220746f20746865207a65726f2061646472657373416464726573733a20696e73756666696369656e742062616c616e636520666f722063616c6c4552433732313a206f70657261746f7220717565727920666f72206e6f6e6578697374656e7420746f6b656e4552433732313a20617070726f76652063616c6c6572206973206e6f74206f776e6572206e6f7220617070726f76656420666f7220616c6c4552433732313a2062616c616e636520717565727920666f7220746865207a65726f20616464726573734552433732313a206f776e657220717565727920666f72206e6f6e6578697374656e7420746f6b656e456e756d657261626c654d61703a20696e646578206f7574206f6620626f756e64734e454f4c4153544943533a204e6f742074686520636f7272656374206f776e65724552433732313a20617070726f76656420717565727920666f72206e6f6e6578697374656e7420746f6b656e4e454f4c4153544943533a204d696e746572206973206e6f74207468652063757276654552433732313a207472616e73666572206f6620746f6b656e2074686174206973206e6f74206f776e4552433732314d657461646174613a2055524920717565727920666f72206e6f6e6578697374656e7420746f6b656e4552433732313a20617070726f76616c20746f2063757272656e74206f776e65724552433732313a207472616e736665722063616c6c6572206973206e6f74206f776e6572206e6f7220617070726f766564a2646970667358221220052ab8960b9b22129f247bf12cfba0c5a5c9d05dae705da1994930b1fb902f2164736f6c634300060c0033",
  "immutableReferences": {},
  "source": "// SPDX-License-Identifier: MIT\n//0x7084aCd77bAE18944CB96A84F46358DB1Af2fCBd\npragma experimental ABIEncoderV2;\npragma solidity ^0.6.12;\n\nimport \"./ERC721.sol\";\nimport \"./utils/SafeMath.sol\";\n\ncontract Curve {\n    using SafeMath for uint256;\n    // linear bonding curve\n    // 99.5% going into reserve.\n    // 0.5% going to creator.\n\n    // this is currently 0.5%\n    uint256 public initMintPrice = 0.001 ether; // at 0\n    uint256 public initBurnPrice = 0.000995 ether; // at 1\n\n    // You technically do not need to keep tabs on the reserve\n    // because it uses linear pricing\n    // but useful to know off-hand. Especially because this.balance might not be the same as the actual reserve\n    uint256 public reserve;\n    \n    address payable public creator;\n\n    ERC721 public neolastics;\n\n    event Minted(uint256 indexed tokenId, uint256 indexed pricePaid, uint256 indexed reserveAfterMint);\n    event Burned(uint256 indexed tokenId, uint256 indexed priceReceived, uint256 indexed reserveAfterBurn);\n\n    struct OwnedMatrixs {\n         uint256[] SoundMatrixid;\n         string[] SoundMatrixhash;\n    }\n  \n    mapping(address => OwnedMatrixs) SoundMatrixs;\n\n    string[]  public allMatrixes;\n    \n    mapping(string => uint8)  public hashes;\n\n\n   function getUserMatrixs(address userAddress)  public  view  returns(string[] memory) {\n      return SoundMatrixs[userAddress].SoundMatrixhash;\n    }\n    /*\n    todo: \n    flash minting protection\n    front-running exploits\n    */\n    constructor (address payable _creator) public {\n        // create ERC721 contract with parameters (name, symbol).\n        creator = _creator;\n        reserve = 0;\n        neolastics = new ERC721 ('(De)generative sound Art','DGSA'); // todo: check naming availability\n    }\n\n\n\n    /*\n    With one mint front-runned, a front-runner will make a loss.\n    With linear price increases of 0.001, it's not profitable.\n    BECAUSE it costs 0.012 ETH at 50 gwei to mint (storage/smart contract costs) + 0.5% loss from creator fee.\n\n    It becomes more profitable to front-run if there are multiple buys that can be spotted\n    from multiple buyers in one block. However, depending on gas price, it depends how profitable it is.\n    Because the planned buffer on the front-end is 0.01 ETH, it's not profitable to front-run any normal amounts.\n    Unless, someone creates a specific contract to start bulk minting.\n    To curb speculation, users can only mint one per transaction (unless you create a separate contract to do this).\n    Thus, ultimately, at this stage, while front-running can be profitable,\n    it is not generally feasible at this small scale.\n\n    Thus, for the sake of usability, there's no additional locks here for front-running protection.\n    A lock would be to have a transaction include the current price:\n    But that means, that only one neolastic per block would be minted (unless you can guess price rises).\n    */\n    function mint(string memory hash) public virtual payable returns (uint256 _tokenId) {\n        // you can only mint one at a time.\n\n        require(msg.value > 0, \"C: No ETH sent\");\n\n        uint256 mintPrice = getCurrentPriceToMint();\n        require(msg.value >= mintPrice, \"C: Not enough ETH sent\");\n\n        require(hashes[hash] != 1, \"Already minted\");\n\n        hashes[hash] = 1;\n\n        // mint first to increase supply\n        uint256 tokenId = neolastics.mint(msg.sender,hash);\n\n        // disburse\n        uint256 reserveCut = getReserveCut();\n        reserve = reserve.add(reserveCut);\n        creator.transfer(mintPrice.sub(reserveCut)); // 0.5%\n\n        if(msg.value.sub(mintPrice) > 0) {\n            msg.sender.transfer(msg.value.sub(mintPrice)); // excess/padding/buffer\n        }\n\n        emit Minted(tokenId, mintPrice, reserve);\n\n         SoundMatrixs[msg.sender].SoundMatrixhash.push(hash);\n         SoundMatrixs[msg.sender].SoundMatrixid.push(tokenId);\n\n         allMatrixes.push(hash);\n\n        return tokenId; // returns tokenId in case its useful to check it\n    }\n\n    function burn(uint256 tokenId) public virtual {\n        uint256 burnPrice = getCurrentPriceToBurn();\n        \n        // checks if allowed to burn\n        neolastics.burn(msg.sender, tokenId);\n\n        reserve = reserve.sub(burnPrice);\n        msg.sender.transfer(burnPrice);\n\n        emit Burned(tokenId, burnPrice, reserve);\n    }\n\n    // if supply 0, mint price = 0.001\n    function getCurrentPriceToMint() public virtual view returns (uint256) {\n        uint256 mintPrice = initMintPrice.add(getCurrentSupply().mul(initMintPrice));\n        return mintPrice;\n    }\n\n    // helper function for legibility\n    function getReserveCut() public virtual view returns (uint256) {\n        return getCurrentPriceToBurn();\n    }\n\n    // if supply 1, then burn price = 0.000995\n    function getCurrentPriceToBurn() public virtual view returns (uint256) {\n        uint256 burnPrice = getCurrentSupply().mul(initBurnPrice);\n        return burnPrice;\n    }\n\n    function getCurrentSupply() public virtual view returns (uint256) {\n        return neolastics.totalSupply();\n    }\n\n\n}",
  "sourcePath": "/Users/js/Documents/Favicon /web/bentobase-contracts/contracts/Curve.sol",
  "compiler": {
    "name": "solc",
    "version": "0.6.12+commit.27d51765.Emscripten.clang"
  },
  "schemaVersion": "3.2.5",
  "updatedAt": "2021-01-03T11:02:12.592Z",
  "networkType": "ethereum",
  "devdoc": {
    "kind": "dev",
    "methods": {},
    "version": 1
  },
  "userdoc": {
    "kind": "user",
    "methods": {},
    "version": 1
  }
}