{
  "contractName": "Factory",
  "abi": [
    {
      "inputs": [
        {
          "internalType": "address",
          "name": "_addressProvider",
          "type": "address"
        },
        {
          "internalType": "address",
          "name": "_kyberAddress",
          "type": "address"
        },
        {
          "internalType": "address",
          "name": "_uniswapAddress",
          "type": "address"
        },
        {
          "internalType": "address",
          "name": "_projectTokenAddress",
          "type": "address"
        }
      ],
      "stateMutability": "nonpayable",
      "type": "constructor"
    },
    {
      "inputs": [],
      "name": "addressProvider",
      "outputs": [
        {
          "internalType": "address",
          "name": "",
          "type": "address"
        }
      ],
      "stateMutability": "view",
      "type": "function",
      "constant": true
    },
    {
      "inputs": [],
      "name": "adminAddress",
      "outputs": [
        {
          "internalType": "address",
          "name": "",
          "type": "address"
        }
      ],
      "stateMutability": "view",
      "type": "function",
      "constant": true
    },
    {
      "inputs": [],
      "name": "daiAddress",
      "outputs": [
        {
          "internalType": "address",
          "name": "",
          "type": "address"
        }
      ],
      "stateMutability": "view",
      "type": "function",
      "constant": true
    },
    {
      "inputs": [
        {
          "internalType": "address",
          "name": "",
          "type": "address"
        }
      ],
      "name": "flashloans",
      "outputs": [
        {
          "internalType": "address",
          "name": "",
          "type": "address"
        }
      ],
      "stateMutability": "view",
      "type": "function",
      "constant": true
    },
    {
      "inputs": [],
      "name": "kyberAddress",
      "outputs": [
        {
          "internalType": "address",
          "name": "",
          "type": "address"
        }
      ],
      "stateMutability": "view",
      "type": "function",
      "constant": true
    },
    {
      "inputs": [],
      "name": "projectToken",
      "outputs": [
        {
          "internalType": "contract IERC20",
          "name": "",
          "type": "address"
        }
      ],
      "stateMutability": "view",
      "type": "function",
      "constant": true
    },
    {
      "inputs": [],
      "name": "uniswapAddress",
      "outputs": [
        {
          "internalType": "address",
          "name": "",
          "type": "address"
        }
      ],
      "stateMutability": "view",
      "type": "function",
      "constant": true
    },
    {
      "inputs": [],
      "name": "wethAddress",
      "outputs": [
        {
          "internalType": "address",
          "name": "",
          "type": "address"
        }
      ],
      "stateMutability": "view",
      "type": "function",
      "constant": true
    },
    {
      "inputs": [],
      "name": "createFlashloan",
      "outputs": [],
      "stateMutability": "nonpayable",
      "type": "function"
    }
  ],
  "bytecode": "0x608060405234801561001057600080fd5b506040516138413803806138418339818101604052608081101561003357600080fd5b810190808051906020019092919080519060200190929190805190602001909291908051906020019092919050505083600160006101000a81548173ffffffffffffffffffffffffffffffffffffffff021916908373ffffffffffffffffffffffffffffffffffffffff16021790555082600260006101000a81548173ffffffffffffffffffffffffffffffffffffffff021916908373ffffffffffffffffffffffffffffffffffffffff16021790555081600360006101000a81548173ffffffffffffffffffffffffffffffffffffffff021916908373ffffffffffffffffffffffffffffffffffffffff16021790555080600660006101000a81548173ffffffffffffffffffffffffffffffffffffffff021916908373ffffffffffffffffffffffffffffffffffffffff160217905550505050506136c8806101796000396000f3fe608060405234801561001057600080fd5b50600436106100935760003560e01c80634b60ce77116100665780634b60ce77146101a25780634f0e0ef3146101d6578063d0dbe2f51461020a578063f14d0cff14610214578063fc6f94681461024857610093565b80630e2feb05146100985780632954018c146100cc5780632c387275146101005780634917aeb614610134575b600080fd5b6100a061027c565b604051808273ffffffffffffffffffffffffffffffffffffffff16815260200191505060405180910390f35b6100d46102a2565b604051808273ffffffffffffffffffffffffffffffffffffffff16815260200191505060405180910390f35b6101086102c8565b604051808273ffffffffffffffffffffffffffffffffffffffff16815260200191505060405180910390f35b6101766004803603602081101561014a57600080fd5b81019080803573ffffffffffffffffffffffffffffffffffffffff1690602001909291905050506102ee565b604051808273ffffffffffffffffffffffffffffffffffffffff16815260200191505060405180910390f35b6101aa610321565b604051808273ffffffffffffffffffffffffffffffffffffffff16815260200191505060405180910390f35b6101de610347565b604051808273ffffffffffffffffffffffffffffffffffffffff16815260200191505060405180910390f35b61021261036d565b005b61021c61067d565b604051808273ffffffffffffffffffffffffffffffffffffffff16815260200191505060405180910390f35b6102506106a3565b604051808273ffffffffffffffffffffffffffffffffffffffff16815260200191505060405180910390f35b600360009054906101000a900473ffffffffffffffffffffffffffffffffffffffff1681565b600160009054906101000a900473ffffffffffffffffffffffffffffffffffffffff1681565b600560009054906101000a900473ffffffffffffffffffffffffffffffffffffffff1681565b60006020528060005260406000206000915054906101000a900473ffffffffffffffffffffffffffffffffffffffff1681565b600660009054906101000a900473ffffffffffffffffffffffffffffffffffffffff1681565b600460009054906101000a900473ffffffffffffffffffffffffffffffffffffffff1681565b6802b5e3af16b1880000600660009054906101000a900473ffffffffffffffffffffffffffffffffffffffff1673ffffffffffffffffffffffffffffffffffffffff166370a08231336040518263ffffffff1660e01b8152600401808273ffffffffffffffffffffffffffffffffffffffff16815260200191505060206040518083038186803b15801561040057600080fd5b505afa158015610414573d6000803e3d6000fd5b505050506040513d602081101561042a57600080fd5b810190808051906020019092919050505010156104af576040517f08c379a00000000000000000000000000000000000000000000000000000000081526004018080602001828103825260148152602001807f696e73756666696369656e742062616c616e636500000000000000000000000081525060200191505060405180910390fd5b6000600160009054906101000a900473ffffffffffffffffffffffffffffffffffffffff16600260009054906101000a900473ffffffffffffffffffffffffffffffffffffffff16600360009054906101000a900473ffffffffffffffffffffffffffffffffffffffff16600660009054906101000a900473ffffffffffffffffffffffffffffffffffffffff163360405161054a906106c9565b808673ffffffffffffffffffffffffffffffffffffffff1681526020018573ffffffffffffffffffffffffffffffffffffffff1681526020018473ffffffffffffffffffffffffffffffffffffffff1681526020018373ffffffffffffffffffffffffffffffffffffffff1681526020018273ffffffffffffffffffffffffffffffffffffffff16815260200195505050505050604051809103906000f0801580156105fa573d6000803e3d6000fd5b509050806000803373ffffffffffffffffffffffffffffffffffffffff1673ffffffffffffffffffffffffffffffffffffffff16815260200190815260200160002060006101000a81548173ffffffffffffffffffffffffffffffffffffffff021916908373ffffffffffffffffffffffffffffffffffffffff16021790555050565b600260009054906101000a900473ffffffffffffffffffffffffffffffffffffffff1681565b600760009054906101000a900473ffffffffffffffffffffffffffffffffffffffff1681565b612fbc806106d78339019056fe60806040523480156200001157600080fd5b5060405162002fbc38038062002fbc8339818101604052810190620000379190620002bb565b8460006200004a6200029c60201b60201c565b9050806000806101000a81548173ffffffffffffffffffffffffffffffffffffffff021916908373ffffffffffffffffffffffffffffffffffffffff1602179055508073ffffffffffffffffffffffffffffffffffffffff16600073ffffffffffffffffffffffffffffffffffffffff167f8be0079c531659141344cd1fd0a4f28419497f9722a3daafe3b4186f6b6457e060405160405180910390a35080600160006101000a81548173ffffffffffffffffffffffffffffffffffffffff021916908373ffffffffffffffffffffffffffffffffffffffff1602179055505083600260006101000a81548173ffffffffffffffffffffffffffffffffffffffff021916908373ffffffffffffffffffffffffffffffffffffffff16021790555082600360006101000a81548173ffffffffffffffffffffffffffffffffffffffff021916908373ffffffffffffffffffffffffffffffffffffffff160217905550600760009054906101000a900473ffffffffffffffffffffffffffffffffffffffff16600460006101000a81548173ffffffffffffffffffffffffffffffffffffffff021916908373ffffffffffffffffffffffffffffffffffffffff16021790555081600560006101000a81548173ffffffffffffffffffffffffffffffffffffffff021916908373ffffffffffffffffffffffffffffffffffffffff16021790555080600660006101000a81548173ffffffffffffffffffffffffffffffffffffffff021916908373ffffffffffffffffffffffffffffffffffffffff16021790555050505050506200038b565b600033905090565b600081519050620002b58162000371565b92915050565b600080600080600060a08688031215620002d457600080fd5b6000620002e488828901620002a4565b9550506020620002f788828901620002a4565b94505060406200030a88828901620002a4565b93505060606200031d88828901620002a4565b92505060806200033088828901620002a4565b9150509295509295909350565b60006200034a8262000351565b9050919050565b600073ffffffffffffffffffffffffffffffffffffffff82169050919050565b6200037c816200033d565b81146200038857600080fd5b50565b612c21806200039b6000396000f3fe6080604052600436106100ab5760003560e01c80638da5cb5b116100645780638da5cb5b1461019f5780638e5f5f57146101ca578063c72c4d10146101f3578063ee8725581461021e578063f2fde38b14610247578063f851a44014610270576100b2565b80632c387275146100b75780634b60ce77146100e257806351cff8d91461010d5780635665f1ae14610136578063683a31d21461015f578063715018a614610188576100b2565b366100b257005b600080fd5b3480156100c357600080fd5b506100cc61029b565b6040516100d9919061260a565b60405180910390f35b3480156100ee57600080fd5b506100f76102c1565b6040516101049190612775565b60405180910390f35b34801561011957600080fd5b50610134600480360381019061012f9190612070565b6102e7565b005b34801561014257600080fd5b5061015d60048036038101906101589190612070565b61053e565b005b34801561016b57600080fd5b50610186600480360381019061018191906120eb565b61072e565b005b34801561019457600080fd5b5061019d610915565b005b3480156101ab57600080fd5b506101b4610a68565b6040516101c1919061260a565b60405180910390f35b3480156101d657600080fd5b506101f160048036038101906101ec91906120eb565b610a91565b005b3480156101ff57600080fd5b50610208610c80565b6040516102159190612790565b60405180910390f35b34801561022a57600080fd5b5061024560048036038101906102409190612127565b610ca6565b005b34801561025357600080fd5b5061026e60048036038101906102699190612070565b61185f565b005b34801561027c57600080fd5b50610285611a21565b604051610292919061260a565b60405180910390f35b600760009054906101000a900473ffffffffffffffffffffffffffffffffffffffff1681565b600560009054906101000a900473ffffffffffffffffffffffffffffffffffffffff1681565b6102ef611a47565b73ffffffffffffffffffffffffffffffffffffffff1660008054906101000a900473ffffffffffffffffffffffffffffffffffffffff1673ffffffffffffffffffffffffffffffffffffffff161461037c576040517f08c379a00000000000000000000000000000000000000000000000000000000081526004016103739061282d565b60405180910390fd5b60008073ffffffffffffffffffffffffffffffffffffffff168273ffffffffffffffffffffffffffffffffffffffff16141561041e5760003090508073ffffffffffffffffffffffffffffffffffffffff163191503373ffffffffffffffffffffffffffffffffffffffff166108fc839081150290604051600060405180830381858888f19350505050158015610417573d6000803e3d6000fd5b50506104d5565b8173ffffffffffffffffffffffffffffffffffffffff166370a08231306040518263ffffffff1660e01b8152600401610457919061260a565b60206040518083038186803b15801561046f57600080fd5b505afa158015610483573d6000803e3d6000fd5b505050506040513d601f19601f820116820180604052508101906104a79190612211565b90506104d433828473ffffffffffffffffffffffffffffffffffffffff16611a4f9092919063ffffffff16565b5b8173ffffffffffffffffffffffffffffffffffffffff163373ffffffffffffffffffffffffffffffffffffffff167f9207361cc2a04b9c7a06691df1eb87c6a63957ae88bf01d0d18c81e3d127209983604051610532919061288d565b60405180910390a35050565b610546611a47565b73ffffffffffffffffffffffffffffffffffffffff1660008054906101000a900473ffffffffffffffffffffffffffffffffffffffff1673ffffffffffffffffffffffffffffffffffffffff16146105d3576040517f08c379a00000000000000000000000000000000000000000000000000000000081526004016105ca9061282d565b60405180910390fd5b3373ffffffffffffffffffffffffffffffffffffffff166108fc479081150290604051600060405180830381858888f1935050505050600081905060008173ffffffffffffffffffffffffffffffffffffffff166370a08231306040518263ffffffff1660e01b81526004016106499190612625565b60206040518083038186803b15801561066157600080fd5b505afa158015610675573d6000803e3d6000fd5b505050506040513d601f19601f820116820180604052508101906106999190612211565b90508173ffffffffffffffffffffffffffffffffffffffff1663a9059cbb33836040518363ffffffff1660e01b81526004016106d692919061268c565b602060405180830381600087803b1580156106f057600080fd5b505af1158015610704573d6000803e3d6000fd5b505050506040513d601f19601f8201168201806040525081019061072891906121e8565b50505050565b610736611a47565b73ffffffffffffffffffffffffffffffffffffffff1660008054906101000a900473ffffffffffffffffffffffffffffffffffffffff1673ffffffffffffffffffffffffffffffffffffffff16146107c3576040517f08c379a00000000000000000000000000000000000000000000000000000000081526004016107ba9061282d565b60405180910390fd5b6000670de0b6b3a764000082029050606060405180602001604052806000815250905060001515600760149054906101000a905050506000600160009054906101000a900473ffffffffffffffffffffffffffffffffffffffff1673ffffffffffffffffffffffffffffffffffffffff16630261bf8b6040518163ffffffff1660e01b815260040160206040518083038186803b15801561086357600080fd5b505afa158015610877573d6000803e3d6000fd5b505050506040513d601f19601f8201168201806040525081019061089b9190612099565b90508073ffffffffffffffffffffffffffffffffffffffff16635cffe9de308786866040518563ffffffff1660e01b81526004016108dc9493929190612640565b600060405180830381600087803b1580156108f657600080fd5b505af115801561090a573d6000803e3d6000fd5b505050505050505050565b61091d611a47565b73ffffffffffffffffffffffffffffffffffffffff1660008054906101000a900473ffffffffffffffffffffffffffffffffffffffff1673ffffffffffffffffffffffffffffffffffffffff16146109aa576040517f08c379a00000000000000000000000000000000000000000000000000000000081526004016109a19061282d565b60405180910390fd5b600073ffffffffffffffffffffffffffffffffffffffff1660008054906101000a900473ffffffffffffffffffffffffffffffffffffffff1673ffffffffffffffffffffffffffffffffffffffff167f8be0079c531659141344cd1fd0a4f28419497f9722a3daafe3b4186f6b6457e060405160405180910390a360008060006101000a81548173ffffffffffffffffffffffffffffffffffffffff021916908373ffffffffffffffffffffffffffffffffffffffff160217905550565b60008060009054906101000a900473ffffffffffffffffffffffffffffffffffffffff16905090565b610a99611a47565b73ffffffffffffffffffffffffffffffffffffffff1660008054906101000a900473ffffffffffffffffffffffffffffffffffffffff1673ffffffffffffffffffffffffffffffffffffffff1614610b26576040517f08c379a0000000000000000000000000000000000000000000000000000000008152600401610b1d9061282d565b60405180910390fd5b6000670de0b6b3a76400008202905060606040518060200160405280600081525090506001600760146101000a81548160ff0219169083151502179055506000600160009054906101000a900473ffffffffffffffffffffffffffffffffffffffff1673ffffffffffffffffffffffffffffffffffffffff16630261bf8b6040518163ffffffff1660e01b815260040160206040518083038186803b158015610bce57600080fd5b505afa158015610be2573d6000803e3d6000fd5b505050506040513d601f19601f82011682018060405250810190610c069190612099565b90508073ffffffffffffffffffffffffffffffffffffffff16635cffe9de308786866040518563ffffffff1660e01b8152600401610c479493929190612640565b600060405180830381600087803b158015610c6157600080fd5b505af1158015610c75573d6000803e3d6000fd5b505050505050505050565b600160009054906101000a900473ffffffffffffffffffffffffffffffffffffffff1681565b600085905060008173ffffffffffffffffffffffffffffffffffffffff166370a08231306040518263ffffffff1660e01b8152600401610ce69190612625565b60206040518083038186803b158015610cfe57600080fd5b505afa158015610d12573d6000803e3d6000fd5b505050506040513d601f19601f82011682018060405250810190610d369190612211565b9050600760149054906101000a900460ff1615611308578173ffffffffffffffffffffffffffffffffffffffff1663095ea7b3600360009054906101000a900473ffffffffffffffffffffffffffffffffffffffff16836040518363ffffffff1660e01b8152600401610daa9291906126b5565b602060405180830381600087803b158015610dc457600080fd5b505af1158015610dd8573d6000803e3d6000fd5b505050506040513d601f19601f82011682018060405250810190610dfc91906121e8565b506060600267ffffffffffffffff81118015610e1757600080fd5b50604051908082528060200260200182016040528015610e465781602001602082028036833780820191505090505b5090508281600081518110610e5757fe5b602002602001019073ffffffffffffffffffffffffffffffffffffffff16908173ffffffffffffffffffffffffffffffffffffffff1681525050600360009054906101000a900473ffffffffffffffffffffffffffffffffffffffff1673ffffffffffffffffffffffffffffffffffffffff1663ad5c46486040518163ffffffff1660e01b815260040160206040518083038186803b158015610ef957600080fd5b505afa158015610f0d573d6000803e3d6000fd5b505050506040513d601f19601f82011682018060405250810190610f319190612099565b81600181518110610f3e57fe5b602002602001019073ffffffffffffffffffffffffffffffffffffffff16908173ffffffffffffffffffffffffffffffffffffffff16815250506060600360009054906101000a900473ffffffffffffffffffffffffffffffffffffffff1673ffffffffffffffffffffffffffffffffffffffff1663d06ca61f84846040518363ffffffff1660e01b8152600401610fd79291906128a8565b60006040518083038186803b158015610fef57600080fd5b505afa158015611003573d6000803e3d6000fd5b505050506040513d6000823e3d601f19601f8201168201806040525081019061102c91906121a7565b9050600360009054906101000a900473ffffffffffffffffffffffffffffffffffffffff1673ffffffffffffffffffffffffffffffffffffffff166318cbafe5848360018151811061107a57fe5b60200260200101518530426040518663ffffffff1660e01b81526004016110a5959493929190612924565b600060405180830381600087803b1580156110bf57600080fd5b505af11580156110d3573d6000803e3d6000fd5b505050506040513d6000823e3d601f19601f820116820180604052508101906110fc91906121a7565b506000600260009054906101000a900473ffffffffffffffffffffffffffffffffffffffff1673ffffffffffffffffffffffffffffffffffffffff1663809a9e55600360009054906101000a900473ffffffffffffffffffffffffffffffffffffffff1673ffffffffffffffffffffffffffffffffffffffff1663ad5c46486040518163ffffffff1660e01b815260040160206040518083038186803b1580156111a557600080fd5b505afa1580156111b9573d6000803e3d6000fd5b505050506040513d601f19601f820116820180604052508101906111dd9190612099565b87476040518463ffffffff1660e01b81526004016111fd939291906126de565b604080518083038186803b15801561121457600080fd5b505afa158015611228573d6000803e3d6000fd5b505050506040513d601f19601f8201168201806040525081019061124c919061223a565b509050600260009054906101000a900473ffffffffffffffffffffffffffffffffffffffff1673ffffffffffffffffffffffffffffffffffffffff16637a2a04564787846040518463ffffffff1660e01b81526004016112ad929190612715565b6020604051808303818588803b1580156112c657600080fd5b505af11580156112da573d6000803e3d6000fd5b50505050506040513d601f19601f820116820180604052508101906112ff9190612211565b50505050611834565b8173ffffffffffffffffffffffffffffffffffffffff1663095ea7b3600260009054906101000a900473ffffffffffffffffffffffffffffffffffffffff16886040518363ffffffff1660e01b81526004016113659291906126b5565b602060405180830381600087803b15801561137f57600080fd5b505af1158015611393573d6000803e3d6000fd5b505050506040513d601f19601f820116820180604052508101906113b791906121e8565b506000600260009054906101000a900473ffffffffffffffffffffffffffffffffffffffff1673ffffffffffffffffffffffffffffffffffffffff1663809a9e558473eeeeeeeeeeeeeeeeeeeeeeeeeeeeeeeeeeeeeeee8a6040518463ffffffff1660e01b815260040161142d939291906126de565b604080518083038186803b15801561144457600080fd5b505afa158015611458573d6000803e3d6000fd5b505050506040513d601f19601f8201168201806040525081019061147c919061223a565b509050600260009054906101000a900473ffffffffffffffffffffffffffffffffffffffff1673ffffffffffffffffffffffffffffffffffffffff16633bba21dc8489846040518463ffffffff1660e01b81526004016114de9392919061273e565b602060405180830381600087803b1580156114f857600080fd5b505af115801561150c573d6000803e3d6000fd5b505050506040513d601f19601f820116820180604052508101906115309190612211565b506060600267ffffffffffffffff8111801561154b57600080fd5b5060405190808252806020026020018201604052801561157a5781602001602082028036833780820191505090505b509050600360009054906101000a900473ffffffffffffffffffffffffffffffffffffffff1673ffffffffffffffffffffffffffffffffffffffff1663ad5c46486040518163ffffffff1660e01b815260040160206040518083038186803b1580156115e557600080fd5b505afa1580156115f9573d6000803e3d6000fd5b505050506040513d601f19601f8201168201806040525081019061161d9190612099565b8160008151811061162a57fe5b602002602001019073ffffffffffffffffffffffffffffffffffffffff16908173ffffffffffffffffffffffffffffffffffffffff1681525050838160018151811061167257fe5b602002602001019073ffffffffffffffffffffffffffffffffffffffff16908173ffffffffffffffffffffffffffffffffffffffff16815250506060600360009054906101000a900473ffffffffffffffffffffffffffffffffffffffff1673ffffffffffffffffffffffffffffffffffffffff16631f00ca748a846040518363ffffffff1660e01b815260040161170b9291906128a8565b60006040518083038186803b15801561172357600080fd5b505afa158015611737573d6000803e3d6000fd5b505050506040513d6000823e3d601f19601f8201168201806040525081019061176091906121a7565b9050600360009054906101000a900473ffffffffffffffffffffffffffffffffffffffff1673ffffffffffffffffffffffffffffffffffffffff1663fb3bdb4147836001815181106117ae57fe5b60200260200101518530426040518663ffffffff1660e01b81526004016117d894939291906128d8565b6000604051808303818588803b1580156117f157600080fd5b505af1158015611805573d6000803e3d6000fd5b50505050506040513d6000823e3d601f19601f8201168201806040525081019061182f91906121a7565b505050505b60006118498688611ad590919063ffffffff16565b90506118558882611b2a565b5050505050505050565b611867611a47565b73ffffffffffffffffffffffffffffffffffffffff1660008054906101000a900473ffffffffffffffffffffffffffffffffffffffff1673ffffffffffffffffffffffffffffffffffffffff16146118f4576040517f08c379a00000000000000000000000000000000000000000000000000000000081526004016118eb9061282d565b60405180910390fd5b600073ffffffffffffffffffffffffffffffffffffffff168173ffffffffffffffffffffffffffffffffffffffff161415611964576040517f08c379a000000000000000000000000000000000000000000000000000000000815260040161195b906127cd565b60405180910390fd5b8073ffffffffffffffffffffffffffffffffffffffff1660008054906101000a900473ffffffffffffffffffffffffffffffffffffffff1673ffffffffffffffffffffffffffffffffffffffff167f8be0079c531659141344cd1fd0a4f28419497f9722a3daafe3b4186f6b6457e060405160405180910390a3806000806101000a81548173ffffffffffffffffffffffffffffffffffffffff021916908373ffffffffffffffffffffffffffffffffffffffff16021790555050565b600660009054906101000a900473ffffffffffffffffffffffffffffffffffffffff1681565b600033905090565b611ad08363a9059cbb60e01b8484604051602401611a6e9291906126b5565b604051602081830303815290604052907bffffffffffffffffffffffffffffffffffffffffffffffffffffffff19166020820180517bffffffffffffffffffffffffffffffffffffffffffffffffffffffff8381831617835250505050611bde565b505050565b600080828401905083811015611b20576040517f08c379a0000000000000000000000000000000000000000000000000000000008152600401611b17906127ed565b60405180910390fd5b8091505092915050565b6000600160009054906101000a900473ffffffffffffffffffffffffffffffffffffffff1673ffffffffffffffffffffffffffffffffffffffff1663ed6ff7606040518163ffffffff1660e01b815260040160206040518083038186803b158015611b9457600080fd5b505afa158015611ba8573d6000803e3d6000fd5b505050506040513d601f19601f82011682018060405250810190611bcc91906120c2565b9050611bd9818484611ca5565b505050565b6060611c40826040518060400160405280602081526020017f5361666545524332303a206c6f772d6c6576656c2063616c6c206661696c65648152508573ffffffffffffffffffffffffffffffffffffffff16611dd79092919063ffffffff16565b9050600081511115611ca05780806020019051810190611c6091906121e8565b611c9f576040517f08c379a0000000000000000000000000000000000000000000000000000000008152600401611c969061286d565b60405180910390fd5b5b505050565b73eeeeeeeeeeeeeeeeeeeeeeeeeeeeeeeeeeeeeeee73ffffffffffffffffffffffffffffffffffffffff168273ffffffffffffffffffffffffffffffffffffffff161415611da65760008373ffffffffffffffffffffffffffffffffffffffff1682604051611d13906125f5565b60006040518083038185875af1925050503d8060008114611d50576040519150601f19603f3d011682016040523d82523d6000602084013e611d55565b606091505b505090506001151581151514611da0576040517f08c379a0000000000000000000000000000000000000000000000000000000008152600401611d979061280d565b60405180910390fd5b50611dd2565b611dd183828473ffffffffffffffffffffffffffffffffffffffff16611a4f9092919063ffffffff16565b5b505050565b6060611de68484600085611def565b90509392505050565b6060611dfa85611f12565b611e39576040517f08c379a0000000000000000000000000000000000000000000000000000000008152600401611e309061284d565b60405180910390fd5b600060608673ffffffffffffffffffffffffffffffffffffffff168587604051611e6391906125de565b60006040518083038185875af1925050503d8060008114611ea0576040519150601f19603f3d011682016040523d82523d6000602084013e611ea5565b606091505b50915091508115611eba578092505050611f0a565b600081511115611ecd5780518082602001fd5b836040517f08c379a0000000000000000000000000000000000000000000000000000000008152600401611f0191906127ab565b60405180910390fd5b949350505050565b600080823b905060008111915050919050565b600081359050611f3481612b8f565b92915050565b600081519050611f4981612b8f565b92915050565b600081519050611f5e81612ba6565b92915050565b600082601f830112611f7557600080fd5b8151611f88611f83826129ab565b61297e565b91508181835260208401935060208101905083856020840282011115611fad57600080fd5b60005b83811015611fdd5781611fc3888261205b565b845260208401935060208301925050600181019050611fb0565b5050505092915050565b600081519050611ff681612bbd565b92915050565b60008083601f84011261200e57600080fd5b8235905067ffffffffffffffff81111561202757600080fd5b60208301915083600182028301111561203f57600080fd5b9250929050565b60008135905061205581612bd4565b92915050565b60008151905061206a81612bd4565b92915050565b60006020828403121561208257600080fd5b600061209084828501611f25565b91505092915050565b6000602082840312156120ab57600080fd5b60006120b984828501611f3a565b91505092915050565b6000602082840312156120d457600080fd5b60006120e284828501611f4f565b91505092915050565b600080604083850312156120fe57600080fd5b600061210c85828601611f25565b925050602061211d85828601612046565b9150509250929050565b60008060008060006080868803121561213f57600080fd5b600061214d88828901611f25565b955050602061215e88828901612046565b945050604061216f88828901612046565b935050606086013567ffffffffffffffff81111561218c57600080fd5b61219888828901611ffc565b92509250509295509295909350565b6000602082840312156121b957600080fd5b600082015167ffffffffffffffff8111156121d357600080fd5b6121df84828501611f64565b91505092915050565b6000602082840312156121fa57600080fd5b600061220884828501611fe7565b91505092915050565b60006020828403121561222357600080fd5b60006122318482850161205b565b91505092915050565b6000806040838503121561224d57600080fd5b600061225b8582860161205b565b925050602061226c8582860161205b565b9150509250929050565b6000612282838361229d565b60208301905092915050565b61229781612aa9565b82525050565b6122a681612a4f565b82525050565b6122b581612a4f565b82525050565b60006122c6826129e3565b6122d08185612a11565b93506122db836129d3565b8060005b8381101561230c5781516122f38882612276565b97506122fe83612a04565b9250506001810190506122df565b5085935050505092915050565b6000612324826129ee565b61232e8185612a22565b935061233e818560208601612b4b565b61234781612b7e565b840191505092915050565b600061235d826129ee565b6123678185612a33565b9350612377818560208601612b4b565b80840191505092915050565b61238c81612abb565b82525050565b61239b81612adf565b82525050565b6123aa81612b03565b82525050565b60006123bb826129f9565b6123c58185612a3e565b93506123d5818560208601612b4b565b6123de81612b7e565b840191505092915050565b60006123f6602683612a3e565b91507f4f776e61626c653a206e6577206f776e657220697320746865207a65726f206160008301527f64647265737300000000000000000000000000000000000000000000000000006020830152604082019050919050565b600061245c601b83612a3e565b91507f536166654d6174683a206164646974696f6e206f766572666c6f7700000000006000830152602082019050919050565b600061249c601583612a3e565b91507f436f756c646e2774207472616e736665722045544800000000000000000000006000830152602082019050919050565b60006124dc602083612a3e565b91507f4f776e61626c653a2063616c6c6572206973206e6f7420746865206f776e65726000830152602082019050919050565b600061251c600083612a33565b9150600082019050919050565b6000612536601d83612a3e565b91507f416464726573733a2063616c6c20746f206e6f6e2d636f6e74726163740000006000830152602082019050919050565b6000612576602a83612a3e565b91507f5361666545524332303a204552433230206f7065726174696f6e20646964206e60008301527f6f742073756363656564000000000000000000000000000000000000000000006020830152604082019050919050565b6125d881612a9f565b82525050565b60006125ea8284612352565b915081905092915050565b60006126008261250f565b9150819050919050565b600060208201905061261f60008301846122ac565b92915050565b600060208201905061263a600083018461228e565b92915050565b6000608082019050612655600083018761228e565b61266260208301866122ac565b61266f60408301856125cf565b81810360608301526126818184612319565b905095945050505050565b60006040820190506126a1600083018561228e565b6126ae60208301846125cf565b9392505050565b60006040820190506126ca60008301856122ac565b6126d760208301846125cf565b9392505050565b60006060820190506126f36000830186612383565b6127006020830185612383565b61270d60408301846125cf565b949350505050565b600060408201905061272a6000830185612383565b61273760208301846125cf565b9392505050565b60006060820190506127536000830186612383565b61276060208301856125cf565b61276d60408301846125cf565b949350505050565b600060208201905061278a6000830184612392565b92915050565b60006020820190506127a560008301846123a1565b92915050565b600060208201905081810360008301526127c581846123b0565b905092915050565b600060208201905081810360008301526127e6816123e9565b9050919050565b600060208201905081810360008301526128068161244f565b9050919050565b600060208201905081810360008301526128268161248f565b9050919050565b60006020820190508181036000830152612846816124cf565b9050919050565b6000602082019050818103600083015261286681612529565b9050919050565b6000602082019050818103600083015261288681612569565b9050919050565b60006020820190506128a260008301846125cf565b92915050565b60006040820190506128bd60008301856125cf565b81810360208301526128cf81846122bb565b90509392505050565b60006080820190506128ed60008301876125cf565b81810360208301526128ff81866122bb565b905061290e604083018561228e565b61291b60608301846125cf565b95945050505050565b600060a08201905061293960008301886125cf565b61294660208301876125cf565b818103604083015261295881866122bb565b9050612967606083018561228e565b61297460808301846125cf565b9695505050505050565b6000604051905081810181811067ffffffffffffffff821117156129a157600080fd5b8060405250919050565b600067ffffffffffffffff8211156129c257600080fd5b602082029050602081019050919050565b6000819050602082019050919050565b600081519050919050565b600081519050919050565b600081519050919050565b6000602082019050919050565b600082825260208201905092915050565b600082825260208201905092915050565b600081905092915050565b600082825260208201905092915050565b6000612a5a82612a7f565b9050919050565b6000612a6c82612a7f565b9050919050565b60008115159050919050565b600073ffffffffffffffffffffffffffffffffffffffff82169050919050565b6000819050919050565b6000612ab482612b27565b9050919050565b6000612ac682612acd565b9050919050565b6000612ad882612a7f565b9050919050565b6000612aea82612af1565b9050919050565b6000612afc82612a7f565b9050919050565b6000612b0e82612b15565b9050919050565b6000612b2082612a7f565b9050919050565b6000612b3282612b39565b9050919050565b6000612b4482612a7f565b9050919050565b60005b83811015612b69578082015181840152602081019050612b4e565b83811115612b78576000848401525b50505050565b6000601f19601f8301169050919050565b612b9881612a4f565b8114612ba357600080fd5b50565b612baf81612a61565b8114612bba57600080fd5b50565b612bc681612a73565b8114612bd157600080fd5b50565b612bdd81612a9f565b8114612be857600080fd5b5056fea2646970667358221220fc4824cdf84f96e6c11d5e0fc10232fd1c42cc67d0baece6dd5559b7c4eaead864736f6c634300060c0033a2646970667358221220469b20e04f67d6e53474d1beedf238995446ea801b1edd03d38843566af5100a64736f6c634300060c0033",
  "immutableReferences": {},
  "source": "pragma solidity ^0.6.6;\n\nimport './Flashloan.sol';\n\ncontract Factory {\n  mapping(address => address) public flashloans;  //map owner to flashloan addresses\n  address public addressProvider;\n  address public kyberAddress;\n  address public uniswapAddress;\n  address public wethAddress;\n  address public daiAddress;\n  IERC20 public projectToken;\n  address public adminAddress;\n  \n\n  constructor(\n    address _addressProvider,\n    address _kyberAddress,\n    address _uniswapAddress,\n    address _projectTokenAddress\n  ) public {\n    addressProvider = _addressProvider;\n    kyberAddress = _kyberAddress;\n    uniswapAddress = _uniswapAddress;\n    projectToken = IERC20(_projectTokenAddress);\n  }\n\n  function createFlashloan() external {\n  \n  require(projectToken.balanceOf(msg.sender) >= 50 * 10 ** 18, 'insufficient balance');\n    Flashloan flashloan = new Flashloan(\n      addressProvider,\n      kyberAddress,\n      uniswapAddress,\n      address(projectToken),\n      msg.sender\n    );\n    \n    flashloans[msg.sender] = address(flashloan);\n  }\n  \n}",
  "sourcePath": "/Volumes/My Passport for Mac/C3PO/flashLoanArbitrageScanner/contracts/Factory.sol",
  "compiler": {
    "name": "solc",
    "version": "0.6.12+commit.27d51765.Emscripten.clang"
  },
  "schemaVersion": "3.2.5",
  "updatedAt": "2020-10-02T11:31:36.578Z",
  "networkType": "ethereum",
  "devdoc": {
    "kind": "dev",
    "methods": {},
    "version": 1
  },
  "userdoc": {
    "kind": "user",
    "methods": {},
    "version": 1
  }
}